:1000000033C000007CC000004AC0000048C00000AF
:1000100046C0000044C0000042C0000040C00000D4
:100020003EC000003CC000003AC0000038C00000E4
:1000300036C0000034C0000033C0000030C00000F3
:100040002EC000002CC000002AC0000028C0000004
:1000500026C0000024C0000022C0000020C0000014
:100060001EC000001CC0000011241FBECFEFD8E04E
:10007000DEBFCDBF11E0A0E0B1E0EAE6F2E002C0F1
:1000800005900D92A430B107D9F711E0A4E0B1E0DA
:1000900001C01D92AA30B107E1F7DAD0E4C0B0CFB9
:1000A0001F920F920FB60F9211248F939F938091FE
:1000B000000190910101019690930101809300014C
:1000C0008091020190910301019690930301809326
:1000D00002019F918F910F900FBE0F901F90189566
:1000E00084B5826084BD84B5806484BD85B5856037
:1000F00085BDEEE6F0E080818260808308951F92E6
:100100000F920FB60F9211240F900FBE0F901F90F9
:100110001895209A219A5A9A0895289A299A80E245
:100120009EE429E130E0F9013197F1F70197D9F721
:100130002898299883B7817F846083BF83B78160C3
:1001400083BF889583B78E7F83BF0895289A299AA5
:1001500088EB9BE029E130E0F9013197F1F7019755
:10016000D9F72998089520910001309101018091DB
:100170000401909105012817390741F485B191E0F8
:10018000892785B910920101109200012091020186
:1001900030910301809106019091070128173907DA
:1001A00049F4D4DF10920301109202011092010170
:1001B0001092000108954A994AC084EC99E0019791
:1001C000F1F74A9B44C08091080190910901892B65
:1001D00049F4289A299A81E090E09093090180934C
:1001E00008010895299820910401309105012E5F9E
:1001F0003F4F3093050120930401809106019091B7
:10020000070188589F4F9093070180930601109231
:100210000101109200011092030110920201283096
:100220003105A9F410920501109204011092010108
:100230001092000110920701109206011092030122
:1002400010920201109209011092080166CF0895E0
:100250001F9346DFE89A78945CDF5FDF13EF17BDEA
:0A02600082DFA9DFFCCFF894FFCF86
:04026A00010001008E
:00000001FF
