:1000000009C04FC020C01FC01EC01DC01DC01BC0E6
:100010001AC019C011241FBECFE9CDBF10E0A0E661
:10002000B0E0E2E1F2E002C005900D92A436B10723
:10003000D9F710E0A4E6B0E001C01D92AA36B107DE
:10004000E1F7D8D0E4C0DCCF1F920F920FB60F9229
:1000500011248F939F93809160009091610001968D
:1000600090936100809360008091620090916300A2
:10007000019690936300809362009F918F910F90FF
:100080000FBE0F901F9018958FB582608FBD8FB5F2
:1000900080648FBD83B7856083BF89B7846089BF63
:1000A00008951F920F920FB60F9211240F900FBE5A
:1000B0000F901F901895BA9ABB9AC19A0895C29A48
:1000C000C39A80E29EE42EE130E0F9013197F1F726
:1000D0000197D9F7C298C39885B7877E806185BF9D
:1000E00085B7806285BF889585B78F7D85BF089568
:1000F000C29AC39A80E593EC2EE130E0F901319782
:10010000F1F70197D9F7C3980895209160003091D5
:10011000610080916400909165002817390741F4CF
:1001200088B394E0892788BB109261001092600028
:100130002091620030916300809166009091670089
:100140002817390749F4D4DF109263001092620037
:1001500010926100109260000895B1994AC088EB36
:100160009BE00197F1F7B19B44C0809168009091AA
:100170006900892B49F4C29AC39A81E090E0909378
:100180006900809368000895C398209164003091BD
:1001900065002E5F3F4F309365002093640080918F
:1001A00066009091670087579F4F909367008093F8
:1001B000660010926100109260001092630010922D
:1001C000620028303105A9F4109265001092640095
:1001D0001092610010926000109267001092660009
:1001E00010926300109262001092690010926800F1
:1001F00066CF08951F9348DF8BB780648BBF7894D8
:100200005ADF5DDF1FEF16BF80DFA7DFFCCFF8945A
:02021000FFCF1E
:0402120001000100E6
:00000001FF
